{
  "_format": "hh-sol-artifact-1",
  "contractName": "GovernanceToken",
  "sourceName": "contracts/GovernanceToken.sol",
  "abi": [
    {
      "inputs": [
        {
          "internalType": "address",
          "name": "initialOwner",
          "type": "address"
        }
      ],
      "stateMutability": "nonpayable",
      "type": "constructor"
    },
    {
      "inputs": [
        {
          "internalType": "address",
          "name": "spender",
          "type": "address"
        },
        {
          "internalType": "uint256",
          "name": "allowance",
          "type": "uint256"
        },
        {
          "internalType": "uint256",
          "name": "needed",
          "type": "uint256"
        }
      ],
      "name": "ERC20InsufficientAllowance",
      "type": "error"
    },
    {
      "inputs": [
        {
          "internalType": "address",
          "name": "sender",
          "type": "address"
        },
        {
          "internalType": "uint256",
          "name": "balance",
          "type": "uint256"
        },
        {
          "internalType": "uint256",
          "name": "needed",
          "type": "uint256"
        }
      ],
      "name": "ERC20InsufficientBalance",
      "type": "error"
    },
    {
      "inputs": [
        {
          "internalType": "address",
          "name": "approver",
          "type": "address"
        }
      ],
      "name": "ERC20InvalidApprover",
      "type": "error"
    },
    {
      "inputs": [
        {
          "internalType": "address",
          "name": "receiver",
          "type": "address"
        }
      ],
      "name": "ERC20InvalidReceiver",
      "type": "error"
    },
    {
      "inputs": [
        {
          "internalType": "address",
          "name": "sender",
          "type": "address"
        }
      ],
      "name": "ERC20InvalidSender",
      "type": "error"
    },
    {
      "inputs": [
        {
          "internalType": "address",
          "name": "spender",
          "type": "address"
        }
      ],
      "name": "ERC20InvalidSpender",
      "type": "error"
    },
    {
      "inputs": [
        {
          "internalType": "address",
          "name": "owner",
          "type": "address"
        }
      ],
      "name": "OwnableInvalidOwner",
      "type": "error"
    },
    {
      "inputs": [
        {
          "internalType": "address",
          "name": "account",
          "type": "address"
        }
      ],
      "name": "OwnableUnauthorizedAccount",
      "type": "error"
    },
    {
      "anonymous": false,
      "inputs": [
        {
          "indexed": true,
          "internalType": "address",
          "name": "owner",
          "type": "address"
        },
        {
          "indexed": true,
          "internalType": "address",
          "name": "spender",
          "type": "address"
        },
        {
          "indexed": false,
          "internalType": "uint256",
          "name": "value",
          "type": "uint256"
        }
      ],
      "name": "Approval",
      "type": "event"
    },
    {
      "anonymous": false,
      "inputs": [
        {
          "indexed": true,
          "internalType": "address",
          "name": "previousOwner",
          "type": "address"
        },
        {
          "indexed": true,
          "internalType": "address",
          "name": "newOwner",
          "type": "address"
        }
      ],
      "name": "OwnershipTransferred",
      "type": "event"
    },
    {
      "anonymous": false,
      "inputs": [
        {
          "indexed": true,
          "internalType": "address",
          "name": "user",
          "type": "address"
        },
        {
          "indexed": false,
          "internalType": "uint256",
          "name": "newScore",
          "type": "uint256"
        }
      ],
      "name": "ReputationUpdated",
      "type": "event"
    },
    {
      "anonymous": false,
      "inputs": [
        {
          "indexed": true,
          "internalType": "address",
          "name": "user",
          "type": "address"
        },
        {
          "indexed": false,
          "internalType": "uint256",
          "name": "amount",
          "type": "uint256"
        }
      ],
      "name": "Staked",
      "type": "event"
    },
    {
      "anonymous": false,
      "inputs": [
        {
          "indexed": true,
          "internalType": "address",
          "name": "from",
          "type": "address"
        },
        {
          "indexed": true,
          "internalType": "address",
          "name": "to",
          "type": "address"
        },
        {
          "indexed": false,
          "internalType": "uint256",
          "name": "value",
          "type": "uint256"
        }
      ],
      "name": "Transfer",
      "type": "event"
    },
    {
      "anonymous": false,
      "inputs": [
        {
          "indexed": true,
          "internalType": "address",
          "name": "user",
          "type": "address"
        },
        {
          "indexed": false,
          "internalType": "uint256",
          "name": "amount",
          "type": "uint256"
        }
      ],
      "name": "Unstaked",
      "type": "event"
    },
    {
      "inputs": [],
      "name": "MIN_STAKING_PERIOD",
      "outputs": [
        {
          "internalType": "uint256",
          "name": "",
          "type": "uint256"
        }
      ],
      "stateMutability": "view",
      "type": "function"
    },
    {
      "inputs": [],
      "name": "REPUTATION_MULTIPLIER",
      "outputs": [
        {
          "internalType": "uint256",
          "name": "",
          "type": "uint256"
        }
      ],
      "stateMutability": "view",
      "type": "function"
    },
    {
      "inputs": [],
      "name": "STAKING_REWARD_RATE",
      "outputs": [
        {
          "internalType": "uint256",
          "name": "",
          "type": "uint256"
        }
      ],
      "stateMutability": "view",
      "type": "function"
    },
    {
      "inputs": [
        {
          "internalType": "address",
          "name": "owner",
          "type": "address"
        },
        {
          "internalType": "address",
          "name": "spender",
          "type": "address"
        }
      ],
      "name": "allowance",
      "outputs": [
        {
          "internalType": "uint256",
          "name": "",
          "type": "uint256"
        }
      ],
      "stateMutability": "view",
      "type": "function"
    },
    {
      "inputs": [
        {
          "internalType": "address",
          "name": "spender",
          "type": "address"
        },
        {
          "internalType": "uint256",
          "name": "value",
          "type": "uint256"
        }
      ],
      "name": "approve",
      "outputs": [
        {
          "internalType": "bool",
          "name": "",
          "type": "bool"
        }
      ],
      "stateMutability": "nonpayable",
      "type": "function"
    },
    {
      "inputs": [
        {
          "internalType": "address",
          "name": "account",
          "type": "address"
        }
      ],
      "name": "balanceOf",
      "outputs": [
        {
          "internalType": "uint256",
          "name": "",
          "type": "uint256"
        }
      ],
      "stateMutability": "view",
      "type": "function"
    },
    {
      "inputs": [
        {
          "internalType": "address",
          "name": "_user",
          "type": "address"
        }
      ],
      "name": "calculateStakingRewards",
      "outputs": [
        {
          "internalType": "uint256",
          "name": "",
          "type": "uint256"
        }
      ],
      "stateMutability": "view",
      "type": "function"
    },
    {
      "inputs": [],
      "name": "decimals",
      "outputs": [
        {
          "internalType": "uint8",
          "name": "",
          "type": "uint8"
        }
      ],
      "stateMutability": "view",
      "type": "function"
    },
    {
      "inputs": [
        {
          "internalType": "address",
          "name": "_user",
          "type": "address"
        }
      ],
      "name": "getStakingInfo",
      "outputs": [
        {
          "internalType": "uint256",
          "name": "stakedAmount",
          "type": "uint256"
        },
        {
          "internalType": "uint256",
          "name": "stakingTime",
          "type": "uint256"
        },
        {
          "internalType": "uint256",
          "name": "reputation",
          "type": "uint256"
        },
        {
          "internalType": "uint256",
          "name": "votingPower",
          "type": "uint256"
        },
        {
          "internalType": "uint256",
          "name": "pendingRewards",
          "type": "uint256"
        }
      ],
      "stateMutability": "view",
      "type": "function"
    },
    {
      "inputs": [
        {
          "internalType": "address",
          "name": "_user",
          "type": "address"
        }
      ],
      "name": "getVotingPower",
      "outputs": [
        {
          "internalType": "uint256",
          "name": "",
          "type": "uint256"
        }
      ],
      "stateMutability": "view",
      "type": "function"
    },
    {
      "inputs": [
        {
          "internalType": "address",
          "name": "_to",
          "type": "address"
        },
        {
          "internalType": "uint256",
          "name": "_amount",
          "type": "uint256"
        }
      ],
      "name": "mint",
      "outputs": [],
      "stateMutability": "nonpayable",
      "type": "function"
    },
    {
      "inputs": [],
      "name": "name",
      "outputs": [
        {
          "internalType": "string",
          "name": "",
          "type": "string"
        }
      ],
      "stateMutability": "view",
      "type": "function"
    },
    {
      "inputs": [],
      "name": "owner",
      "outputs": [
        {
          "internalType": "address",
          "name": "",
          "type": "address"
        }
      ],
      "stateMutability": "view",
      "type": "function"
    },
    {
      "inputs": [],
      "name": "renounceOwnership",
      "outputs": [],
      "stateMutability": "nonpayable",
      "type": "function"
    },
    {
      "inputs": [
        {
          "internalType": "address",
          "name": "",
          "type": "address"
        }
      ],
      "name": "reputationScore",
      "outputs": [
        {
          "internalType": "uint256",
          "name": "",
          "type": "uint256"
        }
      ],
      "stateMutability": "view",
      "type": "function"
    },
    {
      "inputs": [
        {
          "internalType": "uint256",
          "name": "_amount",
          "type": "uint256"
        }
      ],
      "name": "stake",
      "outputs": [],
      "stateMutability": "nonpayable",
      "type": "function"
    },
    {
      "inputs": [
        {
          "internalType": "address",
          "name": "",
          "type": "address"
        }
      ],
      "name": "stakingBalance",
      "outputs": [
        {
          "internalType": "uint256",
          "name": "",
          "type": "uint256"
        }
      ],
      "stateMutability": "view",
      "type": "function"
    },
    {
      "inputs": [
        {
          "internalType": "address",
          "name": "",
          "type": "address"
        }
      ],
      "name": "stakingTimestamp",
      "outputs": [
        {
          "internalType": "uint256",
          "name": "",
          "type": "uint256"
        }
      ],
      "stateMutability": "view",
      "type": "function"
    },
    {
      "inputs": [],
      "name": "symbol",
      "outputs": [
        {
          "internalType": "string",
          "name": "",
          "type": "string"
        }
      ],
      "stateMutability": "view",
      "type": "function"
    },
    {
      "inputs": [],
      "name": "totalSupply",
      "outputs": [
        {
          "internalType": "uint256",
          "name": "",
          "type": "uint256"
        }
      ],
      "stateMutability": "view",
      "type": "function"
    },
    {
      "inputs": [
        {
          "internalType": "address",
          "name": "to",
          "type": "address"
        },
        {
          "internalType": "uint256",
          "name": "value",
          "type": "uint256"
        }
      ],
      "name": "transfer",
      "outputs": [
        {
          "internalType": "bool",
          "name": "",
          "type": "bool"
        }
      ],
      "stateMutability": "nonpayable",
      "type": "function"
    },
    {
      "inputs": [
        {
          "internalType": "address",
          "name": "from",
          "type": "address"
        },
        {
          "internalType": "address",
          "name": "to",
          "type": "address"
        },
        {
          "internalType": "uint256",
          "name": "value",
          "type": "uint256"
        }
      ],
      "name": "transferFrom",
      "outputs": [
        {
          "internalType": "bool",
          "name": "",
          "type": "bool"
        }
      ],
      "stateMutability": "nonpayable",
      "type": "function"
    },
    {
      "inputs": [
        {
          "internalType": "address",
          "name": "newOwner",
          "type": "address"
        }
      ],
      "name": "transferOwnership",
      "outputs": [],
      "stateMutability": "nonpayable",
      "type": "function"
    },
    {
      "inputs": [
        {
          "internalType": "uint256",
          "name": "_amount",
          "type": "uint256"
        }
      ],
      "name": "unstake",
      "outputs": [],
      "stateMutability": "nonpayable",
      "type": "function"
    },
    {
      "inputs": [
        {
          "internalType": "address",
          "name": "_user",
          "type": "address"
        },
        {
          "internalType": "int256",
          "name": "_change",
          "type": "int256"
        }
      ],
      "name": "updateReputation",
      "outputs": [],
      "stateMutability": "nonpayable",
      "type": "function"
    }
  ],
  "bytecode": "0x60806040523480156200001157600080fd5b506040516200139d3803806200139d83398101604081905262000034916200012f565b806040518060400160405280600f81526020016e23b7bb32b93730b731b2aa37b5b2b760891b8152506040518060400160405280600281526020016111d560f21b815250816003908162000089919062000206565b50600462000098828262000206565b5050506001600160a01b038116620000ca57604051631e4fbdf760e01b81526000600482015260240160405180910390fd5b620000d581620000dd565b5050620002d2565b600580546001600160a01b038381166001600160a01b0319831681179093556040519116919082907f8be0079c531659141344cd1fd0a4f28419497f9722a3daafe3b4186f6b6457e090600090a35050565b6000602082840312156200014257600080fd5b81516001600160a01b03811681146200015a57600080fd5b9392505050565b634e487b7160e01b600052604160045260246000fd5b600181811c908216806200018c57607f821691505b602082108103620001ad57634e487b7160e01b600052602260045260246000fd5b50919050565b601f8211156200020157600081815260208120601f850160051c81016020861015620001dc5750805b601f850160051c820191505b81811015620001fd57828155600101620001e8565b5050505b505050565b81516001600160401b0381111562000222576200022262000161565b6200023a8162000233845462000177565b84620001b3565b602080601f831160018114620002725760008415620002595750858301515b600019600386901b1c1916600185901b178555620001fd565b600085815260208120601f198616915b82811015620002a35788860151825594840194600190910190840162000282565b5085821015620002c25787850151600019600388901b60f8161c191681555b5050505050600190811b01905550565b6110bb80620002e26000396000f3fe608060405234801561001057600080fd5b50600436106101735760003560e01c8063715018a6116100de578063a9059cbb11610097578063c743dabb11610071578063c743dabb14610364578063d47768de1461036e578063dd62ed3e14610381578063f2fde38b146103ba57600080fd5b8063a9059cbb14610303578063aa4704f314610316578063bb4d44361461035157600080fd5b8063715018a61461029d578063846686c0146102a55780638da5cb5b146102ad5780638f0794fe146102c857806395d89b41146102e8578063a694fc3a146102f057600080fd5b8063313ce56711610130578063313ce567146101ff57806340c10f191461020e57806345bc78ab1461022157806350d061cb146102415780636a08b5111461026157806370a082311461027457600080fd5b806306fdde0314610178578063095ea7b3146101965780630f1a2905146101b957806318160ddd146101cf57806323b872dd146101d75780632e17de78146101ea575b600080fd5b6101806103cd565b60405161018d9190610e63565b60405180910390f35b6101a96101a4366004610ecd565b61045f565b604051901515815260200161018d565b6101c1606481565b60405190815260200161018d565b6002546101c1565b6101a96101e5366004610ef7565b610479565b6101fd6101f8366004610f33565b61049d565b005b6040516012815260200161018d565b6101fd61021c366004610ecd565b61064a565b6101c161022f366004610f4c565b60066020526000908152604090205481565b6101c161024f366004610f4c565b60086020526000908152604090205481565b6101fd61026f366004610ecd565b610660565b6101c1610282366004610f4c565b6001600160a01b031660009081526020819052604090205490565b6101fd610774565b6101c1600281565b6005546040516001600160a01b03909116815260200161018d565b6101c16102d6366004610f4c565b60076020526000908152604090205481565b610180610788565b6101fd6102fe366004610f33565b610797565b6101a9610311366004610ecd565b6108e0565b610329610324366004610f4c565b6108ee565b604080519586526020860194909452928401919091526060830152608082015260a00161018d565b6101c161035f366004610f4c565b6109a0565b6101c16201518081565b6101c161037c366004610f4c565b6109e6565b6101c161038f366004610f6e565b6001600160a01b03918216600090815260016020908152604080832093909416825291909152205490565b6101fd6103c8366004610f4c565b610a81565b6060600380546103dc90610fa1565b80601f016020809104026020016040519081016040528092919081815260200182805461040890610fa1565b80156104555780601f1061042a57610100808354040283529160200191610455565b820191906000526020600020905b81548152906001019060200180831161043857829003601f168201915b5050505050905090565b60003361046d818585610abf565b60019150505b92915050565b600033610487858285610ad1565b610492858585610b50565b506001949350505050565b600081116104e55760405162461bcd60e51b815260206004820152601060248201526f043616e6e6f7420756e7374616b6520360841b60448201526064015b60405180910390fd5b336000908152600660205260409020548111156105445760405162461bcd60e51b815260206004820152601c60248201527f496e73756666696369656e74207374616b696e672062616c616e63650000000060448201526064016104dc565b33600090815260076020526040902054610562906201518090610ff1565b4210156105b15760405162461bcd60e51b815260206004820152601e60248201527f4d696e696d756d207374616b696e6720706572696f64206e6f74206d6574000060448201526064016104dc565b60006105bc336109e6565b905080156105ce576105ce3382610baf565b33600090815260066020526040812080548492906105ed908490611004565b909155505033600081815260076020526040902042905561061090309084610b50565b60405182815233907f0f5bb82176feb1b5e747e28471aa92156a04d9f3ab9f45f28e2d704232b93f75906020015b60405180910390a25050565b610652610be5565b61065c8282610baf565b5050565b610668610be5565b60008113156106a4576001600160a01b03821660009081526008602052604081208054839290610699908490610ff1565b9091555061072a9050565b600081121561072a5760006106b882611017565b6001600160a01b03841660009081526008602052604090205490915081101561070e576001600160a01b03831660009081526008602052604081208054839290610703908490611004565b909155506107289050565b6001600160a01b0383166000908152600860205260408120555b505b6001600160a01b0382166000818152600860209081526040918290205491519182527ffc577563f1b9a0461e24abef1e1fcc0d33d3d881f20b5df6dda59de4aae2c821910161063e565b61077c610be5565b6107866000610c12565b565b6060600480546103dc90610fa1565b600081116107d85760405162461bcd60e51b815260206004820152600e60248201526d043616e6e6f74207374616b6520360941b60448201526064016104dc565b3360009081526020819052604090205481111561082e5760405162461bcd60e51b8152602060048201526014602482015273496e73756666696369656e742062616c616e636560601b60448201526064016104dc565b336000908152600660205260409020541561086257600061084e336109e6565b90508015610860576108603382610baf565b505b61086d333083610b50565b336000908152600660205260408120805483929061088c908490610ff1565b90915550503360008181526007602052604090819020429055517f9e71bc8eea02a63969f509818f2dafb9254532904319f9dbda79b67bd34a5f3d906108d59084815260200190565b60405180910390a250565b60003361046d818585610b50565b6001600160a01b03811660008181526006602090815260408083205460078352818420546008909352818420549151635da6a21b60e11b8152600481019590955292938493849384938493309063bb4d443690602401602060405180830381865afa158015610961573d6000803e3d6000fd5b505050506040513d601f19601f820116820180604052508101906109859190611033565b61098e8a6109e6565b939a9299509097509550909350915050565b6001600160a01b038116600090815260066020908152604080832054600890925282205482906109d29060029061104c565b90506109de8183610ff1565b949350505050565b6001600160a01b0381166000908152600660205260408120548103610a0d57506000919050565b6001600160a01b038216600090815260076020526040812054610a309042611004565b6001600160a01b0384166000908152600660205260408120549192509061271090610a5d9060649061104c565b610a679190611063565b905062015180610a77838361104c565b6109de9190611063565b610a89610be5565b6001600160a01b038116610ab357604051631e4fbdf760e01b8152600060048201526024016104dc565b610abc81610c12565b50565b610acc8383836001610c64565b505050565b6001600160a01b03838116600090815260016020908152604080832093861683529290522054600019811015610b4a5781811015610b3b57604051637dc7a0d960e11b81526001600160a01b038416600482015260248101829052604481018390526064016104dc565b610b4a84848484036000610c64565b50505050565b6001600160a01b038316610b7a57604051634b637e8f60e11b8152600060048201526024016104dc565b6001600160a01b038216610ba45760405163ec442f0560e01b8152600060048201526024016104dc565b610acc838383610d39565b6001600160a01b038216610bd95760405163ec442f0560e01b8152600060048201526024016104dc565b61065c60008383610d39565b6005546001600160a01b031633146107865760405163118cdaa760e01b81523360048201526024016104dc565b600580546001600160a01b038381166001600160a01b0319831681179093556040519116919082907f8be0079c531659141344cd1fd0a4f28419497f9722a3daafe3b4186f6b6457e090600090a35050565b6001600160a01b038416610c8e5760405163e602df0560e01b8152600060048201526024016104dc565b6001600160a01b038316610cb857604051634a1406b160e11b8152600060048201526024016104dc565b6001600160a01b0380851660009081526001602090815260408083209387168352929052208290558015610b4a57826001600160a01b0316846001600160a01b03167f8c5be1e5ebec7d5bd14f71427d1e84f3dd0314c0f7b2291e5b200ac8c7c3b92584604051610d2b91815260200190565b60405180910390a350505050565b6001600160a01b038316610d64578060026000828254610d599190610ff1565b90915550610dd69050565b6001600160a01b03831660009081526020819052604090205481811015610db75760405163391434e360e21b81526001600160a01b038516600482015260248101829052604481018390526064016104dc565b6001600160a01b03841660009081526020819052604090209082900390555b6001600160a01b038216610df257600280548290039055610e11565b6001600160a01b03821660009081526020819052604090208054820190555b816001600160a01b0316836001600160a01b03167fddf252ad1be2c89b69c2b068fc378daa952ba7f163c4a11628f55a4df523b3ef83604051610e5691815260200190565b60405180910390a3505050565b600060208083528351808285015260005b81811015610e9057858101830151858201604001528201610e74565b506000604082860101526040601f19601f8301168501019250505092915050565b80356001600160a01b0381168114610ec857600080fd5b919050565b60008060408385031215610ee057600080fd5b610ee983610eb1565b946020939093013593505050565b600080600060608486031215610f0c57600080fd5b610f1584610eb1565b9250610f2360208501610eb1565b9150604084013590509250925092565b600060208284031215610f4557600080fd5b5035919050565b600060208284031215610f5e57600080fd5b610f6782610eb1565b9392505050565b60008060408385031215610f8157600080fd5b610f8a83610eb1565b9150610f9860208401610eb1565b90509250929050565b600181811c90821680610fb557607f821691505b602082108103610fd557634e487b7160e01b600052602260045260246000fd5b50919050565b634e487b7160e01b600052601160045260246000fd5b8082018082111561047357610473610fdb565b8181038181111561047357610473610fdb565b6000600160ff1b820161102c5761102c610fdb565b5060000390565b60006020828403121561104557600080fd5b5051919050565b808202811582820484141761047357610473610fdb565b60008261108057634e487b7160e01b600052601260045260246000fd5b50049056fea26469706673582212208a548eed0bfe0d8f0fba910860a426fa42a7cdc8b45e5226159aeacda59b2d0f64736f6c63430008140033",
  "linkReferences": {},
  "deployedLinkReferences": {}
}