{
  "_format": "hh-sol-artifact-1",
  "contractName": "Grant",
  "sourceName": "contracts/Grant.sol",
  "abi": [
    {
      "inputs": [
        {
          "internalType": "string",
          "name": "_title",
          "type": "string"
        },
        {
          "internalType": "address",
          "name": "_funder",
          "type": "address"
        },
        {
          "internalType": "uint256",
          "name": "_totalAmount",
          "type": "uint256"
        },
        {
          "internalType": "uint256",
          "name": "_milestoneCount",
          "type": "uint256"
        },
        {
          "internalType": "string",
          "name": "_ipfsHash",
          "type": "string"
        },
        {
          "internalType": "address",
          "name": "_governanceToken",
          "type": "address"
        },
        {
          "internalType": "uint256",
          "name": "_votingPeriod",
          "type": "uint256"
        }
      ],
      "stateMutability": "payable",
      "type": "constructor"
    },
    {
      "inputs": [
        {
          "internalType": "address",
          "name": "owner",
          "type": "address"
        }
      ],
      "name": "OwnableInvalidOwner",
      "type": "error"
    },
    {
      "inputs": [
        {
          "internalType": "address",
          "name": "account",
          "type": "address"
        }
      ],
      "name": "OwnableUnauthorizedAccount",
      "type": "error"
    },
    {
      "inputs": [],
      "name": "ReentrancyGuardReentrantCall",
      "type": "error"
    },
    {
      "anonymous": false,
      "inputs": [
        {
          "indexed": true,
          "internalType": "uint256",
          "name": "milestoneIndex",
          "type": "uint256"
        },
        {
          "indexed": false,
          "internalType": "uint256",
          "name": "amount",
          "type": "uint256"
        },
        {
          "indexed": false,
          "internalType": "address",
          "name": "recipient",
          "type": "address"
        }
      ],
      "name": "FundsReleased",
      "type": "event"
    },
    {
      "anonymous": false,
      "inputs": [
        {
          "indexed": true,
          "internalType": "address",
          "name": "grantee",
          "type": "address"
        }
      ],
      "name": "GranteeAssigned",
      "type": "event"
    },
    {
      "anonymous": false,
      "inputs": [
        {
          "indexed": true,
          "internalType": "uint256",
          "name": "milestoneIndex",
          "type": "uint256"
        },
        {
          "indexed": false,
          "internalType": "uint256",
          "name": "amount",
          "type": "uint256"
        }
      ],
      "name": "MilestoneApproved",
      "type": "event"
    },
    {
      "anonymous": false,
      "inputs": [
        {
          "indexed": true,
          "internalType": "uint256",
          "name": "milestoneIndex",
          "type": "uint256"
        }
      ],
      "name": "MilestoneRejected",
      "type": "event"
    },
    {
      "anonymous": false,
      "inputs": [
        {
          "indexed": true,
          "internalType": "uint256",
          "name": "milestoneIndex",
          "type": "uint256"
        },
        {
          "indexed": false,
          "internalType": "string",
          "name": "proofIpfsHash",
          "type": "string"
        }
      ],
      "name": "MilestoneSubmitted",
      "type": "event"
    },
    {
      "anonymous": false,
      "inputs": [
        {
          "indexed": true,
          "internalType": "address",
          "name": "previousOwner",
          "type": "address"
        },
        {
          "indexed": true,
          "internalType": "address",
          "name": "newOwner",
          "type": "address"
        }
      ],
      "name": "OwnershipTransferred",
      "type": "event"
    },
    {
      "anonymous": false,
      "inputs": [
        {
          "indexed": true,
          "internalType": "uint256",
          "name": "votingSessionId",
          "type": "uint256"
        },
        {
          "indexed": true,
          "internalType": "address",
          "name": "voter",
          "type": "address"
        },
        {
          "indexed": false,
          "internalType": "bool",
          "name": "vote",
          "type": "bool"
        },
        {
          "indexed": false,
          "internalType": "uint256",
          "name": "weight",
          "type": "uint256"
        }
      ],
      "name": "VoteCast",
      "type": "event"
    },
    {
      "anonymous": false,
      "inputs": [
        {
          "indexed": true,
          "internalType": "uint256",
          "name": "milestoneIndex",
          "type": "uint256"
        },
        {
          "indexed": true,
          "internalType": "uint256",
          "name": "votingSessionId",
          "type": "uint256"
        },
        {
          "indexed": false,
          "internalType": "uint256",
          "name": "endTime",
          "type": "uint256"
        }
      ],
      "name": "VotingStarted",
      "type": "event"
    },
    {
      "inputs": [
        {
          "internalType": "address",
          "name": "_grantee",
          "type": "address"
        }
      ],
      "name": "assignGrantee",
      "outputs": [],
      "stateMutability": "nonpayable",
      "type": "function"
    },
    {
      "inputs": [],
      "name": "emergencyWithdraw",
      "outputs": [],
      "stateMutability": "nonpayable",
      "type": "function"
    },
    {
      "inputs": [
        {
          "internalType": "uint256",
          "name": "_milestoneIndex",
          "type": "uint256"
        }
      ],
      "name": "finalizeVoting",
      "outputs": [],
      "stateMutability": "nonpayable",
      "type": "function"
    },
    {
      "inputs": [],
      "name": "funder",
      "outputs": [
        {
          "internalType": "address",
          "name": "",
          "type": "address"
        }
      ],
      "stateMutability": "view",
      "type": "function"
    },
    {
      "inputs": [
        {
          "internalType": "uint256",
          "name": "_index",
          "type": "uint256"
        }
      ],
      "name": "getMilestone",
      "outputs": [
        {
          "internalType": "string",
          "name": "_title",
          "type": "string"
        },
        {
          "internalType": "string",
          "name": "_description",
          "type": "string"
        },
        {
          "internalType": "uint256",
          "name": "_amount",
          "type": "uint256"
        },
        {
          "internalType": "bool",
          "name": "_completed",
          "type": "bool"
        },
        {
          "internalType": "bool",
          "name": "_fundsReleased",
          "type": "bool"
        },
        {
          "internalType": "string",
          "name": "_proofIpfsHash",
          "type": "string"
        },
        {
          "internalType": "uint256",
          "name": "_submittedAt",
          "type": "uint256"
        }
      ],
      "stateMutability": "view",
      "type": "function"
    },
    {
      "inputs": [],
      "name": "getMilestoneCount",
      "outputs": [
        {
          "internalType": "uint256",
          "name": "",
          "type": "uint256"
        }
      ],
      "stateMutability": "view",
      "type": "function"
    },
    {
      "inputs": [
        {
          "internalType": "uint256",
          "name": "_sessionId",
          "type": "uint256"
        }
      ],
      "name": "getVotingSession",
      "outputs": [
        {
          "internalType": "uint256",
          "name": "startTime",
          "type": "uint256"
        },
        {
          "internalType": "uint256",
          "name": "endTime",
          "type": "uint256"
        },
        {
          "internalType": "uint256",
          "name": "yesVotes",
          "type": "uint256"
        },
        {
          "internalType": "uint256",
          "name": "noVotes",
          "type": "uint256"
        },
        {
          "internalType": "bool",
          "name": "finalized",
          "type": "bool"
        },
        {
          "internalType": "bool",
          "name": "approved",
          "type": "bool"
        }
      ],
      "stateMutability": "view",
      "type": "function"
    },
    {
      "inputs": [],
      "name": "governanceToken",
      "outputs": [
        {
          "internalType": "contract GovernanceToken",
          "name": "",
          "type": "address"
        }
      ],
      "stateMutability": "view",
      "type": "function"
    },
    {
      "inputs": [],
      "name": "grantee",
      "outputs": [
        {
          "internalType": "address",
          "name": "",
          "type": "address"
        }
      ],
      "stateMutability": "view",
      "type": "function"
    },
    {
      "inputs": [
        {
          "internalType": "uint256",
          "name": "_sessionId",
          "type": "uint256"
        },
        {
          "internalType": "address",
          "name": "_voter",
          "type": "address"
        }
      ],
      "name": "hasVoted",
      "outputs": [
        {
          "internalType": "bool",
          "name": "",
          "type": "bool"
        }
      ],
      "stateMutability": "view",
      "type": "function"
    },
    {
      "inputs": [],
      "name": "ipfsHash",
      "outputs": [
        {
          "internalType": "string",
          "name": "",
          "type": "string"
        }
      ],
      "stateMutability": "view",
      "type": "function"
    },
    {
      "inputs": [
        {
          "internalType": "uint256",
          "name": "",
          "type": "uint256"
        }
      ],
      "name": "milestones",
      "outputs": [
        {
          "internalType": "string",
          "name": "title",
          "type": "string"
        },
        {
          "internalType": "string",
          "name": "description",
          "type": "string"
        },
        {
          "internalType": "uint256",
          "name": "amount",
          "type": "uint256"
        },
        {
          "internalType": "bool",
          "name": "completed",
          "type": "bool"
        },
        {
          "internalType": "bool",
          "name": "fundsReleased",
          "type": "bool"
        },
        {
          "internalType": "uint256",
          "name": "votingSessionId",
          "type": "uint256"
        },
        {
          "internalType": "string",
          "name": "proofIpfsHash",
          "type": "string"
        },
        {
          "internalType": "uint256",
          "name": "submittedAt",
          "type": "uint256"
        }
      ],
      "stateMutability": "view",
      "type": "function"
    },
    {
      "inputs": [],
      "name": "owner",
      "outputs": [
        {
          "internalType": "address",
          "name": "",
          "type": "address"
        }
      ],
      "stateMutability": "view",
      "type": "function"
    },
    {
      "inputs": [],
      "name": "releasedAmount",
      "outputs": [
        {
          "internalType": "uint256",
          "name": "",
          "type": "uint256"
        }
      ],
      "stateMutability": "view",
      "type": "function"
    },
    {
      "inputs": [],
      "name": "renounceOwnership",
      "outputs": [],
      "stateMutability": "nonpayable",
      "type": "function"
    },
    {
      "inputs": [
        {
          "internalType": "uint256",
          "name": "_milestoneIndex",
          "type": "uint256"
        },
        {
          "internalType": "string",
          "name": "_title",
          "type": "string"
        },
        {
          "internalType": "string",
          "name": "_description",
          "type": "string"
        },
        {
          "internalType": "uint256",
          "name": "_amount",
          "type": "uint256"
        }
      ],
      "name": "setMilestoneDetails",
      "outputs": [],
      "stateMutability": "nonpayable",
      "type": "function"
    },
    {
      "inputs": [],
      "name": "status",
      "outputs": [
        {
          "internalType": "enum Grant.GrantStatus",
          "name": "",
          "type": "uint8"
        }
      ],
      "stateMutability": "view",
      "type": "function"
    },
    {
      "inputs": [
        {
          "internalType": "uint256",
          "name": "_milestoneIndex",
          "type": "uint256"
        },
        {
          "internalType": "string",
          "name": "_proofIpfsHash",
          "type": "string"
        }
      ],
      "name": "submitMilestone",
      "outputs": [],
      "stateMutability": "nonpayable",
      "type": "function"
    },
    {
      "inputs": [],
      "name": "title",
      "outputs": [
        {
          "internalType": "string",
          "name": "",
          "type": "string"
        }
      ],
      "stateMutability": "view",
      "type": "function"
    },
    {
      "inputs": [],
      "name": "totalAmount",
      "outputs": [
        {
          "internalType": "uint256",
          "name": "",
          "type": "uint256"
        }
      ],
      "stateMutability": "view",
      "type": "function"
    },
    {
      "inputs": [
        {
          "internalType": "address",
          "name": "newOwner",
          "type": "address"
        }
      ],
      "name": "transferOwnership",
      "outputs": [],
      "stateMutability": "nonpayable",
      "type": "function"
    },
    {
      "inputs": [
        {
          "internalType": "uint256",
          "name": "_votingSessionId",
          "type": "uint256"
        },
        {
          "internalType": "bool",
          "name": "_approve",
          "type": "bool"
        }
      ],
      "name": "vote",
      "outputs": [],
      "stateMutability": "nonpayable",
      "type": "function"
    },
    {
      "inputs": [],
      "name": "votingPeriodDuration",
      "outputs": [
        {
          "internalType": "uint256",
          "name": "",
          "type": "uint256"
        }
      ],
      "stateMutability": "view",
      "type": "function"
    },
    {
      "inputs": [],
      "name": "votingSessionCount",
      "outputs": [
        {
          "internalType": "uint256",
          "name": "",
          "type": "uint256"
        }
      ],
      "stateMutability": "view",
      "type": "function"
    },
    {
      "inputs": [
        {
          "internalType": "uint256",
          "name": "",
          "type": "uint256"
        }
      ],
      "name": "votingSessions",
      "outputs": [
        {
          "internalType": "uint256",
          "name": "startTime",
          "type": "uint256"
        },
        {
          "internalType": "uint256",
          "name": "endTime",
          "type": "uint256"
        },
        {
          "internalType": "uint256",
          "name": "yesVotes",
          "type": "uint256"
        },
        {
          "internalType": "uint256",
          "name": "noVotes",
          "type": "uint256"
        },
        {
          "internalType": "bool",
          "name": "finalized",
          "type": "bool"
        },
        {
          "internalType": "bool",
          "name": "approved",
          "type": "bool"
        }
      ],
      "stateMutability": "view",
      "type": "function"
    },
    {
      "stateMutability": "payable",
      "type": "receive"
    }
  ],
  "bytecode": "0x6080604052604051620024b3380380620024b38339810160408190526200002691620003a6565b6001600055856001600160a01b0381166200005c57604051631e4fbdf760e01b8152600060048201526024015b60405180910390fd5b620000678162000272565b50843414620000b95760405162461bcd60e51b815260206004820152601860248201527f496e636f72726563742066756e64696e6720616d6f756e740000000000000000604482015260640162000053565b6002620000c78882620004e1565b50600380546001600160a01b0319166001600160a01b03881617905560058590556007620000f68482620004e1565b50600880546001600160a01b0319166001600160a01b0384161790556009819055600d805460ff1916905560005b848110156200026457604080516101208101825260006101008201818152825282516020818101855282825280840191909152828401829052606083018290526080830182905260a08301829052835190810190935280835260c082019290925260e08101829052600a80546001810182559252805190916007027fc65a7bb8d6351c1cf70c95a316cc6a92839c986682d98bc35f958f4883f9d2a801908190620001d09082620004e1565b5060208201516001820190620001e79082620004e1565b50604082015160028201556060820151600382018054608085015115156101000261ff00199315159390931661ffff199091161791909117905560a0820151600482015560c08201516005820190620002419082620004e1565b5060e08201518160060155505080806200025b90620005ad565b91505062000124565b5050505050505050620005d5565b600180546001600160a01b038381166001600160a01b0319831681179093556040519116919082907f8be0079c531659141344cd1fd0a4f28419497f9722a3daafe3b4186f6b6457e090600090a35050565b634e487b7160e01b600052604160045260246000fd5b600082601f830112620002ec57600080fd5b81516001600160401b0380821115620003095762000309620002c4565b604051601f8301601f19908116603f01168101908282118183101715620003345762000334620002c4565b816040528381526020925086838588010111156200035157600080fd5b600091505b8382101562000375578582018301518183018401529082019062000356565b600093810190920192909252949350505050565b80516001600160a01b0381168114620003a157600080fd5b919050565b600080600080600080600060e0888a031215620003c257600080fd5b87516001600160401b0380821115620003da57600080fd5b620003e88b838c01620002da565b9850620003f860208b0162000389565b975060408a0151965060608a0151955060808a01519150808211156200041d57600080fd5b506200042c8a828b01620002da565b9350506200043d60a0890162000389565b915060c0880151905092959891949750929550565b600181811c908216806200046757607f821691505b6020821081036200048857634e487b7160e01b600052602260045260246000fd5b50919050565b601f821115620004dc57600081815260208120601f850160051c81016020861015620004b75750805b601f850160051c820191505b81811015620004d857828155600101620004c3565b5050505b505050565b81516001600160401b03811115620004fd57620004fd620002c4565b62000515816200050e845462000452565b846200048e565b602080601f8311600181146200054d5760008415620005345750858301515b600019600386901b1c1916600185901b178555620004d8565b600085815260208120601f198616915b828110156200057e578886015182559484019460019091019084016200055d565b50858210156200059d5787850151600019600388901b60f8161c191681555b5050505050600190811b01905550565b600060018201620005ce57634e487b7160e01b600052601160045260246000fd5b5060010190565b611ece80620005e56000396000f3fe60806040526004361061016a5760003560e01c80634a79d50c116100d1578063c623674f1161008a578063db2e21bc11610064578063db2e21bc146104c2578063e89e4ed6146104d7578063f2fde38b1461050b578063f96dae0a1461052b57600080fd5b8063c623674f1461046d578063c9d27afe14610482578063d5f52076146104a257600080fd5b80634a79d50c146103d7578063715018a6146103f95780638da5cb5b1461040e5780638f4cf2471461042c578063b5fdb88e14610441578063b6c5947e1461045757600080fd5b8063211f1ff311610123578063211f1ff3146102fe5780632442e1cb1461031e578063438596321461035157806345d30a1714610381578063476a119b1461039757806349444831146103b757600080fd5b8063041ae880146101765780631186eb7c146101b35780631943c90b1461023a5780631a39d8ef146102915780631c2286ae146102b5578063200d2ed2146102d757600080fd5b3661017157005b600080fd5b34801561018257600080fd5b50600354610196906001600160a01b031681565b6040516001600160a01b0390911681526020015b60405180910390f35b3480156101bf57600080fd5b506102096101ce3660046118bb565b600b60205260009081526040902080546001820154600283015460038401546005909401549293919290919060ff8082169161010090041686565b60408051968752602087019590955293850192909252606084015215156080830152151560a082015260c0016101aa565b34801561024657600080fd5b506102096102553660046118bb565b6000908152600b602052604090208054600182015460028301546003840154600590940154929491939092909160ff8083169261010090041690565b34801561029d57600080fd5b506102a760055481565b6040519081526020016101aa565b3480156102c157600080fd5b506102d56102d03660046118f0565b61054b565b005b3480156102e357600080fd5b50600d546102f19060ff1681565b6040516101aa9190611928565b34801561030a57600080fd5b506102d56103193660046119f3565b610684565b34801561032a57600080fd5b5061033e6103393660046118bb565b6107d9565b6040516101aa9796959493929190611aae565b34801561035d57600080fd5b5061037161036c366004611b12565b610a1b565b60405190151581526020016101aa565b34801561038d57600080fd5b506102a760065481565b3480156103a357600080fd5b506102d56103b2366004611b3e565b610a4b565b3480156103c357600080fd5b506102d56103d23660046118bb565b610cb9565b3480156103e357600080fd5b506103ec610eee565b6040516101aa9190611b85565b34801561040557600080fd5b506102d5610f7c565b34801561041a57600080fd5b506001546001600160a01b0316610196565b34801561043857600080fd5b50600a546102a7565b34801561044d57600080fd5b506102a760095481565b34801561046357600080fd5b506102a7600c5481565b34801561047957600080fd5b506103ec610f90565b34801561048e57600080fd5b506102d561049d366004611b98565b610f9d565b3480156104ae57600080fd5b50600454610196906001600160a01b031681565b3480156104ce57600080fd5b506102d56111de565b3480156104e357600080fd5b506104f76104f23660046118bb565b61135a565b6040516101aa989796959493929190611bcd565b34801561051757600080fd5b506102d56105263660046118f0565b611556565b34801561053757600080fd5b50600854610196906001600160a01b031681565b6003546001600160a01b0316331461057e5760405162461bcd60e51b815260040161057590611c3b565b60405180910390fd5b6004546001600160a01b0316156105d75760405162461bcd60e51b815260206004820152601860248201527f4772616e74656520616c72656164792061737369676e656400000000000000006044820152606401610575565b6001600160a01b03811661062d5760405162461bcd60e51b815260206004820152601760248201527f496e76616c6964206772616e74656520616464726573730000000000000000006044820152606401610575565b600480546001600160a01b0319166001600160a01b038316908117909155600d805460ff191660011790556040517f07611e5b7d96369c4d246de31061a5e57654a8194b21a84e22885ef90472401690600090a250565b6003546001600160a01b031633146106ae5760405162461bcd60e51b815260040161057590611c3b565b600a54849081106106d15760405162461bcd60e51b815260040161057590611c72565b600a85815481106106e4576106e4611ca9565b9060005260206000209060070201600201546000146107455760405162461bcd60e51b815260206004820152601c60248201527f4d696c6573746f6e6520616c726561647920636f6e66696775726564000000006044820152606401610575565b83600a868154811061075957610759611ca9565b906000526020600020906007020160000190816107769190611d44565b5082600a868154811061078b5761078b611ca9565b906000526020600020906007020160010190816107a89190611d44565b5081600a86815481106107bd576107bd611ca9565b9060005260206000209060070201600201819055505050505050565b606080600080600060606000600a8054905088106108095760405162461bcd60e51b815260040161057590611c72565b6000600a898154811061081e5761081e611ca9565b600091825260209091206007909102016002810154600382015460068301548354939450849360018501939260ff808216936101009092041691600587019190879061086990611cbf565b80601f016020809104026020016040519081016040528092919081815260200182805461089590611cbf565b80156108e25780601f106108b7576101008083540402835291602001916108e2565b820191906000526020600020905b8154815290600101906020018083116108c557829003601f168201915b505050505096508580546108f590611cbf565b80601f016020809104026020016040519081016040528092919081815260200182805461092190611cbf565b801561096e5780601f106109435761010080835404028352916020019161096e565b820191906000526020600020905b81548152906001019060200180831161095157829003601f168201915b5050505050955081805461098190611cbf565b80601f01602080910402602001604051908101604052809291908181526020018280546109ad90611cbf565b80156109fa5780601f106109cf576101008083540402835291602001916109fa565b820191906000526020600020905b8154815290600101906020018083116109dd57829003601f168201915b50505050509150975097509750975097509750975050919395979092949650565b6000828152600b602090815260408083206001600160a01b038516845260040190915290205460ff165b92915050565b6004546001600160a01b03163314610aa55760405162461bcd60e51b815260206004820152601a60248201527f4f6e6c79206772616e7465652063616e2063616c6c20746869730000000000006044820152606401610575565b600a5482908110610ac85760405162461bcd60e51b815260040161057590611c72565b6000600a8481548110610add57610add611ca9565b60009182526020909120600790910201600381015490915060ff1615610b455760405162461bcd60e51b815260206004820152601b60248201527f4d696c6573746f6e6520616c726561647920636f6d706c6574656400000000006044820152606401610575565b6000816002015411610b995760405162461bcd60e51b815260206004820152601860248201527f4d696c6573746f6e65206e6f7420636f6e6669677572656400000000000000006044820152606401610575565b6000835111610bdb5760405162461bcd60e51b815260206004820152600e60248201526d141c9bdbd9881c995c5d5a5c995960921b6044820152606401610575565b60058101610be98482611d44565b504281600601819055506000600c60008154610c0490611e1a565b91829055506000818152600b60205260409020428082556009549293509091610c2c91611e33565b60018201556004830182905560405186907f6c4ed5f8d6ddf265b243b3e007707e3374049d833dfc7791c66c06579aa10ff990610c6a908890611b85565b60405180910390a281867f79f4674ed037bbb3d5409860f08f43169a7aab59581ca8d1f2f97578dc944b918360010154604051610ca991815260200190565b60405180910390a3505050505050565b600a5481908110610cdc5760405162461bcd60e51b815260040161057590611c72565b6000600a8381548110610cf157610cf1611ca9565b600091825260208083206004600790930201918201548352600b905260409091206001810154919250904211610d695760405162461bcd60e51b815260206004820152601760248201527f566f74696e6720706572696f64206e6f7420656e6465640000000000000000006044820152606401610575565b600581015460ff1615610db25760405162461bcd60e51b8152602060048201526011602482015270105b1c9958591e48199a5b985b1a5e9959607a1b6044820152606401610575565b60058101805460ff1916600117905560038101546002820154600091610dd791611e33565b905060008111610e195760405162461bcd60e51b815260206004820152600d60248201526c139bc81d9bdd195cc818d85cdd609a1b6044820152606401610575565b6000603c8284600201546064610e2f9190611e46565b610e399190611e5d565b60058501805461ff001916929091108015610100810293909317909155909150610eba5760038401805460ff19166001179055600284015460405187917f939da3b627c123c81fe5aacebf925163337a0d4f8a03724640618078cad2489491610ea491815260200190565b60405180910390a2610eb586611594565b610ee6565b60405186907f2268eb603324c1c4f7a3cb60c7e82795fd192cf05601cda427b385d4fcc42a5e90600090a25b505050505050565b60028054610efb90611cbf565b80601f0160208091040260200160405190810160405280929190818152602001828054610f2790611cbf565b8015610f745780601f10610f4957610100808354040283529160200191610f74565b820191906000526020600020905b815481529060010190602001808311610f5757829003601f168201915b505050505081565b610f8461183c565b610f8e6000611869565b565b60078054610efb90611cbf565b6000828152600b602052604090208054421015610ff15760405162461bcd60e51b8152602060048201526012602482015271159bdd1a5b99c81b9bdd081cdd185c9d195960721b6044820152606401610575565b806001015442111561103b5760405162461bcd60e51b8152602060048201526013602482015272159bdd1a5b99c81c195c9a5bd908195b991959606a1b6044820152606401610575565b33600090815260048201602052604090205460ff161561108d5760405162461bcd60e51b815260206004820152600d60248201526c105b1c9958591e481d9bdd1959609a1b6044820152606401610575565b600854604051635da6a21b60e11b81523360048201526000916001600160a01b03169063bb4d443690602401602060405180830381865afa1580156110d6573d6000803e3d6000fd5b505050506040513d601f19601f820116820180604052508101906110fa9190611e7f565b90506000811161113e5760405162461bcd60e51b815260206004820152600f60248201526e2737903b37ba34b733903837bbb2b960891b6044820152606401610575565b3360009081526004830160205260409020805460ff19166001179055821561117f57808260020160008282546111749190611e33565b909155506111999050565b808260030160008282546111939190611e33565b90915550505b60408051841515815260208101839052339186917fcbdf6214089cba887ecbf35a0b6a734589959c9763342c756bb2a80ca2bc9f6e910160405180910390a350505050565b6003546001600160a01b031633146112085760405162461bcd60e51b815260040161057590611c3b565b6002600d5460ff16600381111561122157611221611912565b0361126e5760405162461bcd60e51b815260206004820152601760248201527f4772616e7420616c726561647920636f6d706c657465640000000000000000006044820152606401610575565b47806112b35760405162461bcd60e51b81526020600482015260146024820152734e6f2066756e647320746f20776974686472617760601b6044820152606401610575565b600d805460ff19166003908117909155546040516000916001600160a01b03169083908381818185875af1925050503d806000811461130e576040519150601f19603f3d011682016040523d82523d6000602084013e611313565b606091505b50509050806113565760405162461bcd60e51b815260206004820152600f60248201526e151c985b9cd9995c8819985a5b1959608a1b6044820152606401610575565b5050565b600a818154811061136a57600080fd5b906000526020600020906007020160009150905080600001805461138d90611cbf565b80601f01602080910402602001604051908101604052809291908181526020018280546113b990611cbf565b80156114065780601f106113db57610100808354040283529160200191611406565b820191906000526020600020905b8154815290600101906020018083116113e957829003601f168201915b50505050509080600101805461141b90611cbf565b80601f016020809104026020016040519081016040528092919081815260200182805461144790611cbf565b80156114945780601f1061146957610100808354040283529160200191611494565b820191906000526020600020905b81548152906001019060200180831161147757829003601f168201915b505050506002830154600384015460048501546005860180549596939560ff80851696506101009094049093169391926114cd90611cbf565b80601f01602080910402602001604051908101604052809291908181526020018280546114f990611cbf565b80156115465780601f1061151b57610100808354040283529160200191611546565b820191906000526020600020905b81548152906001019060200180831161152957829003601f168201915b5050505050908060060154905088565b61155e61183c565b6001600160a01b03811661158857604051631e4fbdf760e01b815260006004820152602401610575565b61159181611869565b50565b6000600a82815481106115a9576115a9611ca9565b60009182526020909120600790910201600381015490915060ff166116105760405162461bcd60e51b815260206004820152601760248201527f4d696c6573746f6e65206e6f7420636f6d706c657465640000000000000000006044820152606401610575565b6003810154610100900460ff16156116635760405162461bcd60e51b8152602060048201526016602482015275119d5b991cc8185b1c9958591e481c995b19585cd95960521b6044820152606401610575565b80600201544710156116b75760405162461bcd60e51b815260206004820152601d60248201527f496e73756666696369656e7420636f6e74726163742062616c616e63650000006044820152606401610575565b60038101805461ff0019166101001790556002810154600680546000906116df908490611e33565b909155505060045460028201546040516000926001600160a01b031691908381818185875af1925050503d8060008114611735576040519150601f19603f3d011682016040523d82523d6000602084013e61173a565b606091505b505090508061177d5760405162461bcd60e51b815260206004820152600f60248201526e151c985b9cd9995c8819985a5b1959608a1b6044820152606401610575565b6002820154600454604080519283526001600160a01b03909116602083015284917f807158a396c8ce26fb6a4a44930e1b49876133ba7806dbaac491ea4713e4515e910160405180910390a2600160005b600a5481101561182157600a81815481106117eb576117eb611ca9565b600091825260209091206003600790920201015460ff1661180f5760009150611821565b8061181981611e1a565b9150506117ce565b50801561183657600d805460ff191660021790555b50505050565b6001546001600160a01b03163314610f8e5760405163118cdaa760e01b8152336004820152602401610575565b600180546001600160a01b038381166001600160a01b0319831681179093556040519116919082907f8be0079c531659141344cd1fd0a4f28419497f9722a3daafe3b4186f6b6457e090600090a35050565b6000602082840312156118cd57600080fd5b5035919050565b80356001600160a01b03811681146118eb57600080fd5b919050565b60006020828403121561190257600080fd5b61190b826118d4565b9392505050565b634e487b7160e01b600052602160045260246000fd5b602081016004831061194a57634e487b7160e01b600052602160045260246000fd5b91905290565b634e487b7160e01b600052604160045260246000fd5b600082601f83011261197757600080fd5b813567ffffffffffffffff8082111561199257611992611950565b604051601f8301601f19908116603f011681019082821181831017156119ba576119ba611950565b816040528381528660208588010111156119d357600080fd5b836020870160208301376000602085830101528094505050505092915050565b60008060008060808587031215611a0957600080fd5b84359350602085013567ffffffffffffffff80821115611a2857600080fd5b611a3488838901611966565b94506040870135915080821115611a4a57600080fd5b50611a5787828801611966565b949793965093946060013593505050565b6000815180845260005b81811015611a8e57602081850181015186830182015201611a72565b506000602082860101526020601f19601f83011685010191505092915050565b60e081526000611ac160e083018a611a68565b8281036020840152611ad3818a611a68565b90508760408401528615156060840152851515608084015282810360a0840152611afd8186611a68565b9150508260c083015298975050505050505050565b60008060408385031215611b2557600080fd5b82359150611b35602084016118d4565b90509250929050565b60008060408385031215611b5157600080fd5b82359150602083013567ffffffffffffffff811115611b6f57600080fd5b611b7b85828601611966565b9150509250929050565b60208152600061190b6020830184611a68565b60008060408385031215611bab57600080fd5b8235915060208301358015158114611bc257600080fd5b809150509250929050565b6000610100808352611be18184018c611a68565b90508281036020840152611bf5818b611a68565b9050886040840152871515606084015286151560808401528560a084015282810360c0840152611c258186611a68565b9150508260e08301529998505050505050505050565b60208082526019908201527f4f6e6c792066756e6465722063616e2063616c6c207468697300000000000000604082015260600190565b60208082526018908201527f4d696c6573746f6e6520646f6573206e6f742065786973740000000000000000604082015260600190565b634e487b7160e01b600052603260045260246000fd5b600181811c90821680611cd357607f821691505b602082108103611cf357634e487b7160e01b600052602260045260246000fd5b50919050565b601f821115611d3f57600081815260208120601f850160051c81016020861015611d205750805b601f850160051c820191505b81811015610ee657828155600101611d2c565b505050565b815167ffffffffffffffff811115611d5e57611d5e611950565b611d7281611d6c8454611cbf565b84611cf9565b602080601f831160018114611da75760008415611d8f5750858301515b600019600386901b1c1916600185901b178555610ee6565b600085815260208120601f198616915b82811015611dd657888601518255948401946001909101908401611db7565b5085821015611df45787850151600019600388901b60f8161c191681555b5050505050600190811b01905550565b634e487b7160e01b600052601160045260246000fd5b600060018201611e2c57611e2c611e04565b5060010190565b80820180821115610a4557610a45611e04565b8082028115828204841417610a4557610a45611e04565b600082611e7a57634e487b7160e01b600052601260045260246000fd5b500490565b600060208284031215611e9157600080fd5b505191905056fea2646970667358221220ebeb243c5a7223cb5116e5c4e0955701f5c0c5897ede0a1b6298cb9316473b2664736f6c63430008140033",
  "linkReferences": {},
  "deployedLinkReferences": {}
}